{"abi":[{"type":"constructor","inputs":[{"name":"feeAccount_","type":"address","internalType":"address"},{"name":"feePercent_","type":"uint256","internalType":"uint256"}],"stateMutability":"nonpayable"},{"type":"function","name":"buyNFT","inputs":[{"name":"nftAddress_","type":"address","internalType":"address"},{"name":"tokenId_","type":"uint256","internalType":"uint256"}],"outputs":[],"stateMutability":"payable"},{"type":"function","name":"cancelList","inputs":[{"name":"nftAddress_","type":"address","internalType":"address"},{"name":"tokenId_","type":"uint256","internalType":"uint256"}],"outputs":[],"stateMutability":"nonpayable"},{"type":"function","name":"feeAccount","inputs":[],"outputs":[{"name":"","type":"address","internalType":"address"}],"stateMutability":"view"},{"type":"function","name":"feePercent","inputs":[],"outputs":[{"name":"","type":"uint256","internalType":"uint256"}],"stateMutability":"view"},{"type":"function","name":"listNFT","inputs":[{"name":"nftAddress_","type":"address","internalType":"address"},{"name":"tokenId_","type":"uint256","internalType":"uint256"},{"name":"price_","type":"uint256","internalType":"uint256"}],"outputs":[],"stateMutability":"nonpayable"},{"type":"function","name":"listing","inputs":[{"name":"","type":"address","internalType":"address"},{"name":"","type":"uint256","internalType":"uint256"}],"outputs":[{"name":"seller","type":"address","internalType":"address"},{"name":"nftAddress","type":"address","internalType":"address"},{"name":"tokenId","type":"uint256","internalType":"uint256"},{"name":"price","type":"uint256","internalType":"uint256"}],"stateMutability":"view"},{"type":"function","name":"owner","inputs":[],"outputs":[{"name":"","type":"address","internalType":"address"}],"stateMutability":"view"},{"type":"function","name":"removeStaleListing","inputs":[{"name":"nftAddress_","type":"address","internalType":"address"},{"name":"tokenId_","type":"uint256","internalType":"uint256"}],"outputs":[],"stateMutability":"nonpayable"},{"type":"function","name":"setFeeAccount","inputs":[{"name":"feeAccount_","type":"address","internalType":"address"}],"outputs":[],"stateMutability":"nonpayable"},{"type":"function","name":"setFeePercent","inputs":[{"name":"feePercent_","type":"uint256","internalType":"uint256"}],"outputs":[],"stateMutability":"nonpayable"},{"type":"function","name":"updatePrice","inputs":[{"name":"nftAddress_","type":"address","internalType":"address"},{"name":"tokenId_","type":"uint256","internalType":"uint256"},{"name":"newPrice_","type":"uint256","internalType":"uint256"}],"outputs":[],"stateMutability":"nonpayable"},{"type":"event","name":"FeeAccountChanged","inputs":[{"name":"oldAccount","type":"address","indexed":true,"internalType":"address"},{"name":"newAccount","type":"address","indexed":true,"internalType":"address"}],"anonymous":false},{"type":"event","name":"FeePercentChanged","inputs":[{"name":"oldPercent","type":"uint256","indexed":false,"internalType":"uint256"},{"name":"newPercent","type":"uint256","indexed":false,"internalType":"uint256"}],"anonymous":false},{"type":"event","name":"NFTCancelled","inputs":[{"name":"seller","type":"address","indexed":true,"internalType":"address"},{"name":"nftAddress","type":"address","indexed":true,"internalType":"address"},{"name":"tokenId","type":"uint256","indexed":true,"internalType":"uint256"}],"anonymous":false},{"type":"event","name":"NFTListed","inputs":[{"name":"seller","type":"address","indexed":true,"internalType":"address"},{"name":"nftAddress","type":"address","indexed":true,"internalType":"address"},{"name":"tokenId","type":"uint256","indexed":true,"internalType":"uint256"},{"name":"price","type":"uint256","indexed":false,"internalType":"uint256"}],"anonymous":false},{"type":"event","name":"NFTPriceUpdated","inputs":[{"name":"seller","type":"address","indexed":true,"internalType":"address"},{"name":"nftAddress","type":"address","indexed":true,"internalType":"address"},{"name":"tokenId","type":"uint256","indexed":true,"internalType":"uint256"},{"name":"newPrice","type":"uint256","indexed":false,"internalType":"uint256"}],"anonymous":false},{"type":"event","name":"NFTSold","inputs":[{"name":"buyer","type":"address","indexed":true,"internalType":"address"},{"name":"seller","type":"address","indexed":true,"internalType":"address"},{"name":"nftAddress","type":"address","indexed":true,"internalType":"address"},{"name":"tokenId","type":"uint256","indexed":false,"internalType":"uint256"},{"name":"price","type":"uint256","indexed":false,"internalType":"uint256"}],"anonymous":false},{"type":"error","name":"ReentrancyGuardReentrantCall","inputs":[]}],"bytecode":{"object":"0x608060405234801561000f575f5ffd5b506040516125e23803806125e28339818101604052810190610031919061020a565b60015f819055503360015f6101000a81548173ffffffffffffffffffffffffffffffffffffffff021916908373ffffffffffffffffffffffffffffffffffffffff1602179055505f73ffffffffffffffffffffffffffffffffffffffff168273ffffffffffffffffffffffffffffffffffffffff16036100e6576040517f08c379a00000000000000000000000000000000000000000000000000000000081526004016100dd906102a2565b60405180910390fd5b6103e881111561012b576040517f08c379a00000000000000000000000000000000000000000000000000000000081526004016101229061030a565b60405180910390fd5b8160025f6101000a81548173ffffffffffffffffffffffffffffffffffffffff021916908373ffffffffffffffffffffffffffffffffffffffff160217905550806003819055505050610328565b5f5ffd5b5f73ffffffffffffffffffffffffffffffffffffffff82169050919050565b5f6101a68261017d565b9050919050565b6101b68161019c565b81146101c0575f5ffd5b50565b5f815190506101d1816101ad565b92915050565b5f819050919050565b6101e9816101d7565b81146101f3575f5ffd5b50565b5f81519050610204816101e0565b92915050565b5f5f604083850312156102205761021f610179565b5b5f61022d858286016101c3565b925050602061023e858286016101f6565b9150509250929050565b5f82825260208201905092915050565b7f496e76616c696420666565206163636f756e74000000000000000000000000005f82015250565b5f61028c601383610248565b915061029782610258565b602082019050919050565b5f6020820190508181035f8301526102b981610280565b9050919050565b7f4665652063616e6e6f74206578636565642031302500000000000000000000005f82015250565b5f6102f4601583610248565b91506102ff826102c0565b602082019050919050565b5f6020820190508181035f830152610321816102e8565b9050919050565b6122ad806103355f395ff3fe60806040526004361061009b575f3560e01c80637fd6f15c116100635780637fd6f15c146101695780638da5cb5b146101935780638de820f6146101bd578063a82ba76f146101fc578063ad05f1b414610218578063e57d6fb7146102405761009b565b80631af71a8e1461009f5780633035bc40146100c75780634b023cf8146100ef57806365e17c9d146101175780637ce3489b14610141575b5f5ffd5b3480156100aa575f5ffd5b506100c560048036038101906100c09190611921565b610268565b005b3480156100d2575f5ffd5b506100ed60048036038101906100e89190611921565b610508565b005b3480156100fa575f5ffd5b506101156004803603810190610110919061195f565b6109ac565b005b348015610122575f5ffd5b5061012b610b67565b6040516101389190611999565b60405180910390f35b34801561014c575f5ffd5b50610167600480360381019061016291906119b2565b610b8c565b005b348015610174575f5ffd5b5061017d610ca5565b60405161018a91906119ec565b60405180910390f35b34801561019e575f5ffd5b506101a7610cab565b6040516101b49190611999565b60405180910390f35b3480156101c8575f5ffd5b506101e360048036038101906101de9190611921565b610cd0565b6040516101f39493929190611a05565b60405180910390f35b61021660048036038101906102119190611921565b610d45565b005b348015610223575f5ffd5b5061023e60048036038101906102399190611a48565b611251565b005b34801561024b575f5ffd5b5061026660048036038101906102619190611a48565b61169d565b005b610270611843565b5f60045f8473ffffffffffffffffffffffffffffffffffffffff1673ffffffffffffffffffffffffffffffffffffffff1681526020019081526020015f205f8381526020019081526020015f206040518060800160405290815f82015f9054906101000a900473ffffffffffffffffffffffffffffffffffffffff1673ffffffffffffffffffffffffffffffffffffffff1673ffffffffffffffffffffffffffffffffffffffff168152602001600182015f9054906101000a900473ffffffffffffffffffffffffffffffffffffffff1673ffffffffffffffffffffffffffffffffffffffff1673ffffffffffffffffffffffffffffffffffffffff1681526020016002820154815260200160038201548152505090503373ffffffffffffffffffffffffffffffffffffffff16815f015173ffffffffffffffffffffffffffffffffffffffff16146103f8576040517f08c379a00000000000000000000000000000000000000000000000000000000081526004016103ef90611af2565b60405180910390fd5b60045f8473ffffffffffffffffffffffffffffffffffffffff1673ffffffffffffffffffffffffffffffffffffffff1681526020019081526020015f205f8381526020019081526020015f205f5f82015f6101000a81549073ffffffffffffffffffffffffffffffffffffffff0219169055600182015f6101000a81549073ffffffffffffffffffffffffffffffffffffffff0219169055600282015f9055600382015f90555050818373ffffffffffffffffffffffffffffffffffffffff163373ffffffffffffffffffffffffffffffffffffffff167f7d40bfcab678c814514bd07e21bc90d6b1e5fdec959a65e86d071cdbfc5be71960405160405180910390a450610504611887565b5050565b610510611843565b5f60045f8473ffffffffffffffffffffffffffffffffffffffff1673ffffffffffffffffffffffffffffffffffffffff1681526020019081526020015f205f8381526020019081526020015f206040518060800160405290815f82015f9054906101000a900473ffffffffffffffffffffffffffffffffffffffff1673ffffffffffffffffffffffffffffffffffffffff1673ffffffffffffffffffffffffffffffffffffffff168152602001600182015f9054906101000a900473ffffffffffffffffffffffffffffffffffffffff1673ffffffffffffffffffffffffffffffffffffffff1673ffffffffffffffffffffffffffffffffffffffff1681526020016002820154815260200160038201548152505090505f81606001511161066d576040517f08c379a000000000000000000000000000000000000000000000000000000000815260040161066490611b5a565b60405180910390fd5b5f8373ffffffffffffffffffffffffffffffffffffffff16636352211e846040518263ffffffff1660e01b81526004016106a791906119ec565b602060405180830381865afa1580156106c2573d5f5f3e3d5ffd5b505050506040513d601f19601f820116820180604052508101906106e69190611b8c565b90505f825f015173ffffffffffffffffffffffffffffffffffffffff168273ffffffffffffffffffffffffffffffffffffffff16141590505f3073ffffffffffffffffffffffffffffffffffffffff168673ffffffffffffffffffffffffffffffffffffffff1663081812fc876040518263ffffffff1660e01b815260040161076f91906119ec565b602060405180830381865afa15801561078a573d5f5f3e3d5ffd5b505050506040513d601f19601f820116820180604052508101906107ae9190611b8c565b73ffffffffffffffffffffffffffffffffffffffff161415801561084c57508573ffffffffffffffffffffffffffffffffffffffff1663e985e9c5855f0151306040518363ffffffff1660e01b815260040161080b929190611bb7565b602060405180830381865afa158015610826573d5f5f3e3d5ffd5b505050506040513d601f19601f8201168201806040525081019061084a9190611c13565b155b905081806108575750805b610896576040517f08c379a000000000000000000000000000000000000000000000000000000000815260040161088d90611cae565b60405180910390fd5b60045f8773ffffffffffffffffffffffffffffffffffffffff1673ffffffffffffffffffffffffffffffffffffffff1681526020019081526020015f205f8681526020019081526020015f205f5f82015f6101000a81549073ffffffffffffffffffffffffffffffffffffffff0219169055600182015f6101000a81549073ffffffffffffffffffffffffffffffffffffffff0219169055600282015f9055600382015f90555050848673ffffffffffffffffffffffffffffffffffffffff16855f015173ffffffffffffffffffffffffffffffffffffffff167f7d40bfcab678c814514bd07e21bc90d6b1e5fdec959a65e86d071cdbfc5be71960405160405180910390a4505050506109a8611887565b5050565b60015f9054906101000a900473ffffffffffffffffffffffffffffffffffffffff1673ffffffffffffffffffffffffffffffffffffffff163373ffffffffffffffffffffffffffffffffffffffff1614610a3b576040517f08c379a0000000000000000000000000000000000000000000000000000000008152600401610a3290611d16565b60405180910390fd5b5f73ffffffffffffffffffffffffffffffffffffffff168173ffffffffffffffffffffffffffffffffffffffff1603610aa9576040517f08c379a0000000000000000000000000000000000000000000000000000000008152600401610aa090611d7e565b60405180910390fd5b8073ffffffffffffffffffffffffffffffffffffffff1660025f9054906101000a900473ffffffffffffffffffffffffffffffffffffffff1673ffffffffffffffffffffffffffffffffffffffff167f508dcd584678b460e90a73b67f0c71c3c9eb2506cc1100a01ec04f6a19fac64860405160405180910390a38060025f6101000a81548173ffffffffffffffffffffffffffffffffffffffff021916908373ffffffffffffffffffffffffffffffffffffffff16021790555050565b60025f9054906101000a900473ffffffffffffffffffffffffffffffffffffffff1681565b60015f9054906101000a900473ffffffffffffffffffffffffffffffffffffffff1673ffffffffffffffffffffffffffffffffffffffff163373ffffffffffffffffffffffffffffffffffffffff1614610c1b576040517f08c379a0000000000000000000000000000000000000000000000000000000008152600401610c1290611d16565b60405180910390fd5b6103e8811115610c60576040517f08c379a0000000000000000000000000000000000000000000000000000000008152600401610c5790611de6565b60405180910390fd5b7f44cb215a0ee4011e0802aea4220545b8f823c5041bb303a4ae1219f99f91e65b60035482604051610c93929190611e04565b60405180910390a18060038190555050565b60035481565b60015f9054906101000a900473ffffffffffffffffffffffffffffffffffffffff1681565b6004602052815f5260405f20602052805f5260405f205f9150915050805f015f9054906101000a900473ffffffffffffffffffffffffffffffffffffffff1690806001015f9054906101000a900473ffffffffffffffffffffffffffffffffffffffff16908060020154908060030154905084565b610d4d611843565b5f60045f8473ffffffffffffffffffffffffffffffffffffffff1673ffffffffffffffffffffffffffffffffffffffff1681526020019081526020015f205f8381526020019081526020015f206040518060800160405290815f82015f9054906101000a900473ffffffffffffffffffffffffffffffffffffffff1673ffffffffffffffffffffffffffffffffffffffff1673ffffffffffffffffffffffffffffffffffffffff168152602001600182015f9054906101000a900473ffffffffffffffffffffffffffffffffffffffff1673ffffffffffffffffffffffffffffffffffffffff1673ffffffffffffffffffffffffffffffffffffffff1681526020016002820154815260200160038201548152505090505f816060015111610eaa576040517f08c379a0000000000000000000000000000000000000000000000000000000008152600401610ea190611e75565b60405180910390fd5b80606001513414610ef0576040517f08c379a0000000000000000000000000000000000000000000000000000000008152600401610ee790611edd565b60405180910390fd5b60045f8473ffffffffffffffffffffffffffffffffffffffff1673ffffffffffffffffffffffffffffffffffffffff1681526020019081526020015f205f8381526020019081526020015f205f5f82015f6101000a81549073ffffffffffffffffffffffffffffffffffffffff0219169055600182015f6101000a81549073ffffffffffffffffffffffffffffffffffffffff0219169055600282015f9055600382015f905550505f61271060035434610faa9190611f28565b610fb49190611f96565b90505f8134610fc39190611fc6565b90508473ffffffffffffffffffffffffffffffffffffffff166342842e0e845f01513386604001516040518463ffffffff1660e01b815260040161100993929190611ff9565b5f604051808303815f87803b158015611020575f5ffd5b505af1158015611032573d5f5f3e3d5ffd5b505050505f821115611109575f60025f9054906101000a900473ffffffffffffffffffffffffffffffffffffffff1673ffffffffffffffffffffffffffffffffffffffff16836040516110849061205b565b5f6040518083038185875af1925050503d805f81146110be576040519150601f19603f3d011682016040523d82523d5f602084013e6110c3565b606091505b5050905080611107576040517f08c379a00000000000000000000000000000000000000000000000000000000081526004016110fe906120b9565b60405180910390fd5b505b5f835f015173ffffffffffffffffffffffffffffffffffffffff16826040516111319061205b565b5f6040518083038185875af1925050503d805f811461116b576040519150601f19603f3d011682016040523d82523d5f602084013e611170565b606091505b50509050806111b4576040517f08c379a00000000000000000000000000000000000000000000000000000000081526004016111ab90612121565b60405180910390fd5b836020015173ffffffffffffffffffffffffffffffffffffffff16845f015173ffffffffffffffffffffffffffffffffffffffff163373ffffffffffffffffffffffffffffffffffffffff167f1b81ea9818518fffa07ee623cfd9ce8af1900f3e0c918f2ca4fcfc9745cdc16587604001518860600151604051611239929190611e04565b60405180910390a45050505061124d611887565b5050565b611259611843565b5f811161129b576040517f08c379a000000000000000000000000000000000000000000000000000000000815260040161129290612189565b60405180910390fd5b5f8373ffffffffffffffffffffffffffffffffffffffff16636352211e846040518263ffffffff1660e01b81526004016112d591906119ec565b602060405180830381865afa1580156112f0573d5f5f3e3d5ffd5b505050506040513d601f19601f820116820180604052508101906113149190611b8c565b90503373ffffffffffffffffffffffffffffffffffffffff168173ffffffffffffffffffffffffffffffffffffffff1614611384576040517f08c379a000000000000000000000000000000000000000000000000000000000815260040161137b906121f1565b60405180910390fd5b3073ffffffffffffffffffffffffffffffffffffffff168473ffffffffffffffffffffffffffffffffffffffff1663081812fc856040518263ffffffff1660e01b81526004016113d491906119ec565b602060405180830381865afa1580156113ef573d5f5f3e3d5ffd5b505050506040513d601f19601f820116820180604052508101906114139190611b8c565b73ffffffffffffffffffffffffffffffffffffffff1614806114ab57508373ffffffffffffffffffffffffffffffffffffffff1663e985e9c533306040518363ffffffff1660e01b815260040161146b929190611bb7565b602060405180830381865afa158015611486573d5f5f3e3d5ffd5b505050506040513d601f19601f820116820180604052508101906114aa9190611c13565b5b6114ea576040517f08c379a00000000000000000000000000000000000000000000000000000000081526004016114e190612259565b60405180910390fd5b5f60405180608001604052803373ffffffffffffffffffffffffffffffffffffffff1681526020018673ffffffffffffffffffffffffffffffffffffffff1681526020018581526020018481525090508060045f8773ffffffffffffffffffffffffffffffffffffffff1673ffffffffffffffffffffffffffffffffffffffff1681526020019081526020015f205f8681526020019081526020015f205f820151815f015f6101000a81548173ffffffffffffffffffffffffffffffffffffffff021916908373ffffffffffffffffffffffffffffffffffffffff1602179055506020820151816001015f6101000a81548173ffffffffffffffffffffffffffffffffffffffff021916908373ffffffffffffffffffffffffffffffffffffffff1602179055506040820151816002015560608201518160030155905050838573ffffffffffffffffffffffffffffffffffffffff163373ffffffffffffffffffffffffffffffffffffffff167fbeab3a2bb824b124a8a1eb465eec003338d61b414db132d37e9b3a984fdcf0108660405161168691906119ec565b60405180910390a45050611698611887565b505050565b6116a5611843565b5f81116116e7576040517f08c379a00000000000000000000000000000000000000000000000000000000081526004016116de90612189565b60405180910390fd5b5f60045f8573ffffffffffffffffffffffffffffffffffffffff1673ffffffffffffffffffffffffffffffffffffffff1681526020019081526020015f205f8481526020019081526020015f2090503373ffffffffffffffffffffffffffffffffffffffff16815f015f9054906101000a900473ffffffffffffffffffffffffffffffffffffffff1673ffffffffffffffffffffffffffffffffffffffff16146117c6576040517f08c379a00000000000000000000000000000000000000000000000000000000081526004016117bd90611af2565b60405180910390fd5b818160030181905550828473ffffffffffffffffffffffffffffffffffffffff163373ffffffffffffffffffffffffffffffffffffffff167f04c66cf454867084108123551c82f9c3142009431e1e941eaaf6ceef2fad167d8560405161182d91906119ec565b60405180910390a45061183e611887565b505050565b60025f540361187e576040517f3ee5aeb500000000000000000000000000000000000000000000000000000000815260040160405180910390fd5b60025f81905550565b60015f81905550565b5f5ffd5b5f73ffffffffffffffffffffffffffffffffffffffff82169050919050565b5f6118bd82611894565b9050919050565b6118cd816118b3565b81146118d7575f5ffd5b50565b5f813590506118e8816118c4565b92915050565b5f819050919050565b611900816118ee565b811461190a575f5ffd5b50565b5f8135905061191b816118f7565b92915050565b5f5f6040838503121561193757611936611890565b5b5f611944858286016118da565b92505060206119558582860161190d565b9150509250929050565b5f6020828403121561197457611973611890565b5b5f611981848285016118da565b91505092915050565b611993816118b3565b82525050565b5f6020820190506119ac5f83018461198a565b92915050565b5f602082840312156119c7576119c6611890565b5b5f6119d48482850161190d565b91505092915050565b6119e6816118ee565b82525050565b5f6020820190506119ff5f8301846119dd565b92915050565b5f608082019050611a185f83018761198a565b611a25602083018661198a565b611a3260408301856119dd565b611a3f60608301846119dd565b95945050505050565b5f5f5f60608486031215611a5f57611a5e611890565b5b5f611a6c868287016118da565b9350506020611a7d8682870161190d565b9250506040611a8e8682870161190d565b9150509250925092565b5f82825260208201905092915050565b7f596f7520617265206e6f7420746865206c697374696e67206f776e65720000005f82015250565b5f611adc601d83611a98565b9150611ae782611aa8565b602082019050919050565b5f6020820190508181035f830152611b0981611ad0565b9050919050565b7f4c697374696e6720646f6573206e6f74206578697374000000000000000000005f82015250565b5f611b44601683611a98565b9150611b4f82611b10565b602082019050919050565b5f6020820190508181035f830152611b7181611b38565b9050919050565b5f81519050611b86816118c4565b92915050565b5f60208284031215611ba157611ba0611890565b5b5f611bae84828501611b78565b91505092915050565b5f604082019050611bca5f83018561198a565b611bd7602083018461198a565b9392505050565b5f8115159050919050565b611bf281611bde565b8114611bfc575f5ffd5b50565b5f81519050611c0d81611be9565b92915050565b5f60208284031215611c2857611c27611890565b5b5f611c3584828501611bff565b91505092915050565b7f4c697374696e67206973207374696c6c2076616c696420616e642061637469765f8201527f6500000000000000000000000000000000000000000000000000000000000000602082015250565b5f611c98602183611a98565b9150611ca382611c3e565b604082019050919050565b5f6020820190508181035f830152611cc581611c8c565b9050919050565b7f4e6f742074686520636f6e7472616374206f776e6572000000000000000000005f82015250565b5f611d00601683611a98565b9150611d0b82611ccc565b602082019050919050565b5f6020820190508181035f830152611d2d81611cf4565b9050919050565b7f496e76616c6964206164647265737300000000000000000000000000000000005f82015250565b5f611d68600f83611a98565b9150611d7382611d34565b602082019050919050565b5f6020820190508181035f830152611d9581611d5c565b9050919050565b7f4665652063616e6e6f74206578636565642031302500000000000000000000005f82015250565b5f611dd0601583611a98565b9150611ddb82611d9c565b602082019050919050565b5f6020820190508181035f830152611dfd81611dc4565b9050919050565b5f604082019050611e175f8301856119dd565b611e2460208301846119dd565b9392505050565b7f4c697374696e67206e6f742065786973747300000000000000000000000000005f82015250565b5f611e5f601283611a98565b9150611e6a82611e2b565b602082019050919050565b5f6020820190508181035f830152611e8c81611e53565b9050919050565b7f496e636f727265637420707269636500000000000000000000000000000000005f82015250565b5f611ec7600f83611a98565b9150611ed282611e93565b602082019050919050565b5f6020820190508181035f830152611ef481611ebb565b9050919050565b7f4e487b71000000000000000000000000000000000000000000000000000000005f52601160045260245ffd5b5f611f32826118ee565b9150611f3d836118ee565b9250828202611f4b816118ee565b91508282048414831517611f6257611f61611efb565b5b5092915050565b7f4e487b71000000000000000000000000000000000000000000000000000000005f52601260045260245ffd5b5f611fa0826118ee565b9150611fab836118ee565b925082611fbb57611fba611f69565b5b828204905092915050565b5f611fd0826118ee565b9150611fdb836118ee565b9250828203905081811115611ff357611ff2611efb565b5b92915050565b5f60608201905061200c5f83018661198a565b612019602083018561198a565b61202660408301846119dd565b949350505050565b5f81905092915050565b50565b5f6120465f8361202e565b915061205182612038565b5f82019050919050565b5f6120658261203b565b9150819050919050565b7f466565207472616e73666572206661696c6564000000000000000000000000005f82015250565b5f6120a3601383611a98565b91506120ae8261206f565b602082019050919050565b5f6020820190508181035f8301526120d081612097565b9050919050565b7f53656c6c6572207472616e73666572206661696c6564000000000000000000005f82015250565b5f61210b601683611a98565b9150612116826120d7565b602082019050919050565b5f6020820190508181035f830152612138816120ff565b9050919050565b7f50726963652063616e206e6f74206265203000000000000000000000000000005f82015250565b5f612173601283611a98565b915061217e8261213f565b602082019050919050565b5f6020820190508181035f8301526121a081612167565b9050919050565b7f596f7520617265206e6f7420746865206f776e6572206f6620746865204e46545f82015250565b5f6121db602083611a98565b91506121e6826121a7565b602082019050919050565b5f6020820190508181035f830152612208816121cf565b9050919050565b7f4d61726b6574706c616365206e6f7420617070726f76656400000000000000005f82015250565b5f612243601883611a98565b915061224e8261220f565b602082019050919050565b5f6020820190508181035f83015261227081612237565b905091905056fea264697066735822122059365585ce18cb3bae7bd881d295509bc5cfded8a7f88ab4ba966f7aeb2291cd64736f6c63430008230033","linkReferences":{}},"methodIdentifiers":{"buyNFT(address,uint256)":"a82ba76f","cancelList(address,uint256)":"1af71a8e","feeAccount()":"65e17c9d","feePercent()":"7fd6f15c","listNFT(address,uint256,uint256)":"ad05f1b4","listing(address,uint256)":"8de820f6","owner()":"8da5cb5b","removeStaleListing(address,uint256)":"3035bc40","setFeeAccount(address)":"4b023cf8","setFeePercent(uint256)":"7ce3489b","updatePrice(address,uint256,uint256)":"e57d6fb7"},"id":33}