{"abi":[{"type":"constructor","inputs":[],"stateMutability":"nonpayable"},{"type":"function","name":"buyNFT","inputs":[{"name":"nftAddress_","type":"address","internalType":"address"},{"name":"tokenId_","type":"uint256","internalType":"uint256"}],"outputs":[],"stateMutability":"payable"},{"type":"function","name":"cancelList","inputs":[{"name":"nftAddress_","type":"address","internalType":"address"},{"name":"tokenId_","type":"uint256","internalType":"uint256"}],"outputs":[],"stateMutability":"nonpayable"},{"type":"function","name":"listNFT","inputs":[{"name":"nftAddress_","type":"address","internalType":"address"},{"name":"tokenId_","type":"uint256","internalType":"uint256"},{"name":"price_","type":"uint256","internalType":"uint256"}],"outputs":[],"stateMutability":"nonpayable"},{"type":"function","name":"listing","inputs":[{"name":"","type":"address","internalType":"address"},{"name":"","type":"uint256","internalType":"uint256"}],"outputs":[{"name":"seller","type":"address","internalType":"address"},{"name":"nftAddress","type":"address","internalType":"address"},{"name":"tokenId","type":"uint256","internalType":"uint256"},{"name":"price","type":"uint256","internalType":"uint256"}],"stateMutability":"view"},{"type":"event","name":"NFTCancelled","inputs":[{"name":"seller","type":"address","indexed":true,"internalType":"address"},{"name":"nftAddress","type":"address","indexed":true,"internalType":"address"},{"name":"tokenId","type":"uint256","indexed":true,"internalType":"uint256"}],"anonymous":false},{"type":"event","name":"NFTListed","inputs":[{"name":"seller","type":"address","indexed":true,"internalType":"address"},{"name":"nftAddress","type":"address","indexed":true,"internalType":"address"},{"name":"tokenId","type":"uint256","indexed":true,"internalType":"uint256"},{"name":"price","type":"uint256","indexed":false,"internalType":"uint256"}],"anonymous":false},{"type":"event","name":"NFTSold","inputs":[{"name":"buyer","type":"address","indexed":true,"internalType":"address"},{"name":"seller","type":"address","indexed":true,"internalType":"address"},{"name":"nftAddress","type":"address","indexed":true,"internalType":"address"},{"name":"tokenId","type":"uint256","indexed":false,"internalType":"uint256"},{"name":"price","type":"uint256","indexed":false,"internalType":"uint256"}],"anonymous":false},{"type":"error","name":"ReentrancyGuardReentrantCall","inputs":[]}],"bytecode":{"object":"0x608060405234801561000f575f80fd5b5060015f8190555061106a806100245f395ff3fe60806040526004361061003e575f3560e01c80631af71a8e146100425780638de820f61461006a578063a82ba76f146100a9578063ad05f1b4146100c5575b5f80fd5b34801561004d575f80fd5b5061006860048036038101906100639190610bd0565b6100ed565b005b348015610075575f80fd5b50610090600480360381019061008b9190610bd0565b61038d565b6040516100a09493929190610c2c565b60405180910390f35b6100c360048036038101906100be9190610bd0565b610402565b005b3480156100d0575f80fd5b506100eb60048036038101906100e69190610c6f565b61080c565b005b6100f5610af2565b5f60015f8473ffffffffffffffffffffffffffffffffffffffff1673ffffffffffffffffffffffffffffffffffffffff1681526020019081526020015f205f8381526020019081526020015f206040518060800160405290815f82015f9054906101000a900473ffffffffffffffffffffffffffffffffffffffff1673ffffffffffffffffffffffffffffffffffffffff1673ffffffffffffffffffffffffffffffffffffffff168152602001600182015f9054906101000a900473ffffffffffffffffffffffffffffffffffffffff1673ffffffffffffffffffffffffffffffffffffffff1673ffffffffffffffffffffffffffffffffffffffff1681526020016002820154815260200160038201548152505090503373ffffffffffffffffffffffffffffffffffffffff16815f015173ffffffffffffffffffffffffffffffffffffffff161461027d576040517f08c379a000000000000000000000000000000000000000000000000000000000815260040161027490610d19565b60405180910390fd5b60015f8473ffffffffffffffffffffffffffffffffffffffff1673ffffffffffffffffffffffffffffffffffffffff1681526020019081526020015f205f8381526020019081526020015f205f8082015f6101000a81549073ffffffffffffffffffffffffffffffffffffffff0219169055600182015f6101000a81549073ffffffffffffffffffffffffffffffffffffffff0219169055600282015f9055600382015f90555050818373ffffffffffffffffffffffffffffffffffffffff163373ffffffffffffffffffffffffffffffffffffffff167f7d40bfcab678c814514bd07e21bc90d6b1e5fdec959a65e86d071cdbfc5be71960405160405180910390a450610389610b36565b5050565b6001602052815f5260405f20602052805f5260405f205f9150915050805f015f9054906101000a900473ffffffffffffffffffffffffffffffffffffffff1690806001015f9054906101000a900473ffffffffffffffffffffffffffffffffffffffff16908060020154908060030154905084565b61040a610af2565b5f60015f8473ffffffffffffffffffffffffffffffffffffffff1673ffffffffffffffffffffffffffffffffffffffff1681526020019081526020015f205f8381526020019081526020015f206040518060800160405290815f82015f9054906101000a900473ffffffffffffffffffffffffffffffffffffffff1673ffffffffffffffffffffffffffffffffffffffff1673ffffffffffffffffffffffffffffffffffffffff168152602001600182015f9054906101000a900473ffffffffffffffffffffffffffffffffffffffff1673ffffffffffffffffffffffffffffffffffffffff1673ffffffffffffffffffffffffffffffffffffffff1681526020016002820154815260200160038201548152505090505f816060015111610567576040517f08c379a000000000000000000000000000000000000000000000000000000000815260040161055e90610d81565b60405180910390fd5b806060015134146105ad576040517f08c379a00000000000000000000000000000000000000000000000000000000081526004016105a490610de9565b60405180910390fd5b60015f8473ffffffffffffffffffffffffffffffffffffffff1673ffffffffffffffffffffffffffffffffffffffff1681526020019081526020015f205f8381526020019081526020015f205f8082015f6101000a81549073ffffffffffffffffffffffffffffffffffffffff0219169055600182015f6101000a81549073ffffffffffffffffffffffffffffffffffffffff0219169055600282015f9055600382015f905550508273ffffffffffffffffffffffffffffffffffffffff166342842e0e825f01513384604001516040518463ffffffff1660e01b815260040161069993929190610e07565b5f604051808303815f87803b1580156106b0575f80fd5b505af11580156106c2573d5f803e3d5ffd5b505050505f815f015173ffffffffffffffffffffffffffffffffffffffff16346040516106ee90610e69565b5f6040518083038185875af1925050503d805f8114610728576040519150601f19603f3d011682016040523d82523d5f602084013e61072d565b606091505b5050905080610771576040517f08c379a000000000000000000000000000000000000000000000000000000000815260040161076890610ec7565b60405180910390fd5b816020015173ffffffffffffffffffffffffffffffffffffffff16825f015173ffffffffffffffffffffffffffffffffffffffff163373ffffffffffffffffffffffffffffffffffffffff167f1b81ea9818518fffa07ee623cfd9ce8af1900f3e0c918f2ca4fcfc9745cdc165856040015186606001516040516107f6929190610ee5565b60405180910390a45050610808610b36565b5050565b610814610af2565b5f8111610856576040517f08c379a000000000000000000000000000000000000000000000000000000000815260040161084d90610f56565b60405180910390fd5b5f8373ffffffffffffffffffffffffffffffffffffffff16636352211e846040518263ffffffff1660e01b81526004016108909190610f74565b602060405180830381865afa1580156108ab573d5f803e3d5ffd5b505050506040513d601f19601f820116820180604052508101906108cf9190610fa1565b90503373ffffffffffffffffffffffffffffffffffffffff168173ffffffffffffffffffffffffffffffffffffffff161461093f576040517f08c379a000000000000000000000000000000000000000000000000000000000815260040161093690611016565b60405180910390fd5b5f60405180608001604052803373ffffffffffffffffffffffffffffffffffffffff1681526020018673ffffffffffffffffffffffffffffffffffffffff1681526020018581526020018481525090508060015f8773ffffffffffffffffffffffffffffffffffffffff1673ffffffffffffffffffffffffffffffffffffffff1681526020019081526020015f205f8681526020019081526020015f205f820151815f015f6101000a81548173ffffffffffffffffffffffffffffffffffffffff021916908373ffffffffffffffffffffffffffffffffffffffff1602179055506020820151816001015f6101000a81548173ffffffffffffffffffffffffffffffffffffffff021916908373ffffffffffffffffffffffffffffffffffffffff1602179055506040820151816002015560608201518160030155905050838573ffffffffffffffffffffffffffffffffffffffff163373ffffffffffffffffffffffffffffffffffffffff167fbeab3a2bb824b124a8a1eb465eec003338d61b414db132d37e9b3a984fdcf01086604051610adb9190610f74565b60405180910390a45050610aed610b36565b505050565b60025f5403610b2d576040517f3ee5aeb500000000000000000000000000000000000000000000000000000000815260040160405180910390fd5b60025f81905550565b60015f81905550565b5f80fd5b5f73ffffffffffffffffffffffffffffffffffffffff82169050919050565b5f610b6c82610b43565b9050919050565b610b7c81610b62565b8114610b86575f80fd5b50565b5f81359050610b9781610b73565b92915050565b5f819050919050565b610baf81610b9d565b8114610bb9575f80fd5b50565b5f81359050610bca81610ba6565b92915050565b5f8060408385031215610be657610be5610b3f565b5b5f610bf385828601610b89565b9250506020610c0485828601610bbc565b9150509250929050565b610c1781610b62565b82525050565b610c2681610b9d565b82525050565b5f608082019050610c3f5f830187610c0e565b610c4c6020830186610c0e565b610c596040830185610c1d565b610c666060830184610c1d565b95945050505050565b5f805f60608486031215610c8657610c85610b3f565b5b5f610c9386828701610b89565b9350506020610ca486828701610bbc565b9250506040610cb586828701610bbc565b9150509250925092565b5f82825260208201905092915050565b7f596f7520617265206e6f7420746865206c697374696e67206f776e65720000005f82015250565b5f610d03601d83610cbf565b9150610d0e82610ccf565b602082019050919050565b5f6020820190508181035f830152610d3081610cf7565b9050919050565b7f4c697374696e67206e6f742065786973747300000000000000000000000000005f82015250565b5f610d6b601283610cbf565b9150610d7682610d37565b602082019050919050565b5f6020820190508181035f830152610d9881610d5f565b9050919050565b7f496e636f727265637420707269636500000000000000000000000000000000005f82015250565b5f610dd3600f83610cbf565b9150610dde82610d9f565b602082019050919050565b5f6020820190508181035f830152610e0081610dc7565b9050919050565b5f606082019050610e1a5f830186610c0e565b610e276020830185610c0e565b610e346040830184610c1d565b949350505050565b5f81905092915050565b50565b5f610e545f83610e3c565b9150610e5f82610e46565b5f82019050919050565b5f610e7382610e49565b9150819050919050565b7f4661696c000000000000000000000000000000000000000000000000000000005f82015250565b5f610eb1600483610cbf565b9150610ebc82610e7d565b602082019050919050565b5f6020820190508181035f830152610ede81610ea5565b9050919050565b5f604082019050610ef85f830185610c1d565b610f056020830184610c1d565b9392505050565b7f50726963652063616e206e6f74206265203000000000000000000000000000005f82015250565b5f610f40601283610cbf565b9150610f4b82610f0c565b602082019050919050565b5f6020820190508181035f830152610f6d81610f34565b9050919050565b5f602082019050610f875f830184610c1d565b92915050565b5f81519050610f9b81610b73565b92915050565b5f60208284031215610fb657610fb5610b3f565b5b5f610fc384828501610f8d565b91505092915050565b7f596f7520617265206e6f7420746865206f776e6572206f6620746865204e46545f82015250565b5f611000602083610cbf565b915061100b82610fcc565b602082019050919050565b5f6020820190508181035f83015261102d81610ff4565b905091905056fea264697066735822122015b62f8fe51bd6e98a99c521212e7d94c752832a64d12a3c6885c2f09fab9b9f64736f6c63430008180033","linkReferences":{}},"methodIdentifiers":{"buyNFT(address,uint256)":"a82ba76f","cancelList(address,uint256)":"1af71a8e","listNFT(address,uint256,uint256)":"ad05f1b4","listing(address,uint256)":"8de820f6"},"id":33}